:08000000803102288731F52F41
:10086800640080010131890B352C003420000E16FC
:100878004E30F100EB30F000F00B402CF10B402C27
:1008880020000E12080084316524843103302000D2
:10089800DC009730DB00DB0B4F2CDC0B4F2C0032DD
:1008A80084313A24843184318924843186318826FC
:1008B800843185317B2584312100171463000000C1
:1008C800542C210019088739703899001708C13944
:1008D8001A38970023008E0104308C0021000E1076
:1008E8008E140E118E110E128E120C128C162200FE
:1008F8001D179D162400151614131510951415119F
:100908009511951620008E15080022001708FC394D
:10091800023897009717171F8F2C21009E171D0864
:10092800833908389D0003309E041E111E088F3934
:1009380020389E001D140D30F000F00BA12C210072
:100948009D149D18A52C1C08F00070082000A0001C
:1009580021001B08F00070082000A1002200971356
:1009680021001D100800F50024001512141720009E
:100978008E11750824009100141CC02C1108230046
:100988009A009E1CC52CF601F70172087702031D18
:10099800CF2C710876020318F62C76087007F3003E
:1009A800730886008701010824009100141CDA2CC2
:1009B8001108F30076087007F400740886008701B0
:1009C8007308810076087007F300730886008701B2
:1009D800010823009A009E1CEF2C0130F607003016
:1009E800F73DC92C20008E1508002000C901F31F0F
:1009F8000A2DF009F109F209F309F00A0319F10ABD
:100A08000319F20A0319F30AC901C90AF71F1B2DB2
:100A1800F409F509F609F709F40A0319F50A03199F
:100A2800F60A0319F70A0130F8007808C9060030F9
:100A3800CD000030CC000030CB000030CA00730875
:100A48007204710470040319642DC801C80AF31BE9
:100A5800392D0130F035F10DF20DF30D890B2E2DE6
:100A68000130F8007808C8072B2D0130CA35CB0DA6
:100A7800CC0DCD0D890B3A2D73087702031D4E2D31
:100A880072087602031D4E2D71087502031D4E2D46
:100A980070087402031C592D7008F4027108F53BA4
:100AA8007208F63B7308F73B4A140130F336F20C30
:100AB800F10CF00C890B5A2D0130C802031D392D99
:100AC80049080319722DCA09CB09CC09CD09CA0AEC
:100AD8000319CB0A0319CC0A0319CD0A4D08F300F0
:100AE8004C08F2004B08F1004A08F00008000E30EC
:100AF800F80078082000A8002830F8007808F000EE
:100B08000130F1000030F20020308431B724853103
:100B18000D30F900FB30F800F80B902DF90B902DF3
:100B280000320430F80078082000A8002830F800C7
:100B38007808F0000130F1000030F2003D308431D7
:100B4800B72485313F30F80078082000A800283005
:100B5800F8007808F0000130F1000030F2003C3075
:100B68008431B7248531C230F80078082000A80005
:100B7800C230F8007808A900C230F8007808AA0046
:100B8800C230F8007808AB00C230F8007808AC0032
:100B98002830F8007808F0000530F1000030F20045
:100BA80030308431B72485312630F80078082000A9
:100BB800A8002830F8007808F0000130F100003073
:100BC800F20026308431B72485311F30F8007808C8
:100BD8002000A8002830F8007808F0000130F10063
:100BE8000030F20024308431B72485317E30F8009B
:100BF80078082000A8002830F8007808F0000130B4
:100C0800F1000030F20027308431B72485312830D4
:100C1800F8007808F0000030F1000030F200E13010
:100C28008431B72485314230F80078082000A800C4
:100C38003230F8007808A9002008F8007808AA00DF
:100C48002108F8007808AB005730F8007808AC00A5
:100C58003330F8007808AD002208F8007808AE00B4
:100C68002308F8007808AF002408F8007808B000D6
:100C78005430F8007808B1003330F8007808B20032
:100C88002508F8007808B3002608F8007808B400AA
:100C98002708F8007808B5002830F8007808F00030
:100CA8000E30F1000030F200A0308431B7248531D5
:100CB80020000E152130F800F80B602E20000E11D0
:100CC8000330F9009730F800F80B682EF90B682EFE
:100CD80000320C30F80078082000A8002830F8000E
:100CE8007808F0000130F1000030F2002030843143
:100CF800B72485310330F9009730F800F80B822EBD
:100D0800F90B822E0032080000302000D800003095
:100D1800D9000030DA000030D7000030D6000030AB
:100D2800D5000030D4008E128C1A982ECE011930BE
:100D38004E020318A92E8E168E120130F90079087A
:100D4800CE0719304E02031C9F2ECF0108304F02E8
:100D58000318F92E8C1AAE2ED00118305002031841
:100D6800DD2E5808F9005908FA005A08FB0001302E
:100D7800F935FA0DFB0D890BBC2E7908D8007A08D5
:100D8800D9007B08DA008E168E128C1ED52E013003
:100D9800D807003003180130D90700300318013094
:100DA800DA070130F9007908D00718305002031C1F
:100DB800B52E8E168E125808F9005908FA005A08EE
:100DC800FB000030FB1BFF30FC007908D4077A08D1
:100DD800D53D7B08D63D7C08D73D0130F900790820
:100DE800CF0708304F02031CAE2E0030F30000304E
:100DF800F2000030F1000830F0005708F7005608FC
:100E0800F6005508F5005408F4008431F9248631B9
:100E180072082000DA007108D9007008D800580854
:100E2800F9005908FA005A08FB001030FC007B0D45
:100E3800FB0CFA0CF90CFC0B1B2F7908FD007D0844
:100E4800A2005808F9005908FA005A08FB000830AF
:100E5800FC007B0DFB0CFA0CF90CFC0B2D2F790810
:100E6800FD007D08A3005808F9007908A4008C1A31
:100E78003B2FD1011A30510203184C2F8E168E12B7
:100E88000130F9007908D1071A305102031C422FAA
:100E98000030D8000030D9000030DA000030D70028
:100EA8000030D6000030D5000030D400D201083020
:100EB80052020318AC2F8C1A5F2FD301183053023B
:100EC80003188E2F5808F9005908FA005A08FB0031
:100ED8000130F935FA0DFB0D890B6D2F7908D80013
:100EE8007A08D9007B08DA008E168E128C1E862F9F
:100EF8000130D807003003180130D9070030031833
:100F08000130DA070130F9007908D30718305302A5
:100F1800031C662F8E168E128E168E125808F90034
:100F28005908FA005A08FB000030FB1BFF30FC0090
:100F38007908D4077A08D53D7B08D63D7C08D73D8B
:100F48000130F9007908D20708305202031C5F2FDC
:100F58000030F3000030F2000030F1000830F000FB
:100F68005708F7005608F6005508F5005408F4002D
:100F78008431F924863172082000DA007108D9001A
:100F88007008D8005808F9005908FA005A08FB00F8
:100F98001030FC007B0DFB0CFA0CF90CFC0BCE2F6F
:100FA8007908FD007D08A5005808F9005908FA00DD
:100FB8005A08FB000830FC007B0DFB0CFA0CF90CFE
:100FC800FC0BE02F7908FD007D08A6005808F90001
:100FD8007908A7000D30F900F90BF02F20008E16C4
:100FE8000800203084000030850028308431342403
:080FF8007E1020008431472C1B
:020000040001F9
:04000E00ACF9FFFE4C
:00000001FF
